{
  "_format": "hh-sol-artifact-1",
  "contractName": "TotalPokerNFT",
  "sourceName": "contracts/TotalPokerNFT.sol",
  "abi": [
    {
      "inputs": [],
      "stateMutability": "nonpayable",
      "type": "constructor"
    },
    {
      "anonymous": false,
      "inputs": [
        {
          "indexed": true,
          "internalType": "address",
          "name": "owner",
          "type": "address"
        },
        {
          "indexed": true,
          "internalType": "address",
          "name": "approved",
          "type": "address"
        },
        {
          "indexed": true,
          "internalType": "uint256",
          "name": "tokenId",
          "type": "uint256"
        }
      ],
      "name": "Approval",
      "type": "event"
    },
    {
      "anonymous": false,
      "inputs": [
        {
          "indexed": true,
          "internalType": "address",
          "name": "owner",
          "type": "address"
        },
        {
          "indexed": true,
          "internalType": "address",
          "name": "operator",
          "type": "address"
        },
        {
          "indexed": false,
          "internalType": "bool",
          "name": "approved",
          "type": "bool"
        }
      ],
      "name": "ApprovalForAll",
      "type": "event"
    },
    {
      "anonymous": false,
      "inputs": [
        {
          "indexed": true,
          "internalType": "address",
          "name": "from",
          "type": "address"
        },
        {
          "indexed": true,
          "internalType": "address",
          "name": "to",
          "type": "address"
        },
        {
          "indexed": true,
          "internalType": "uint256",
          "name": "tokenId",
          "type": "uint256"
        }
      ],
      "name": "Transfer",
      "type": "event"
    },
    {
      "inputs": [
        {
          "internalType": "address",
          "name": "to",
          "type": "address"
        },
        {
          "internalType": "uint256",
          "name": "tokenId",
          "type": "uint256"
        }
      ],
      "name": "approve",
      "outputs": [],
      "stateMutability": "nonpayable",
      "type": "function"
    },
    {
      "inputs": [
        {
          "internalType": "address",
          "name": "owner",
          "type": "address"
        }
      ],
      "name": "balanceOf",
      "outputs": [
        {
          "internalType": "uint256",
          "name": "",
          "type": "uint256"
        }
      ],
      "stateMutability": "view",
      "type": "function"
    },
    {
      "inputs": [],
      "name": "getA",
      "outputs": [
        {
          "internalType": "string",
          "name": "",
          "type": "string"
        }
      ],
      "stateMutability": "view",
      "type": "function"
    },
    {
      "inputs": [
        {
          "internalType": "uint256",
          "name": "tokenId",
          "type": "uint256"
        }
      ],
      "name": "getApproved",
      "outputs": [
        {
          "internalType": "address",
          "name": "",
          "type": "address"
        }
      ],
      "stateMutability": "view",
      "type": "function"
    },
    {
      "inputs": [
        {
          "internalType": "uint256",
          "name": "tokenId",
          "type": "uint256"
        }
      ],
      "name": "getNftProperties",
      "outputs": [
        {
          "components": [
            {
              "internalType": "address",
              "name": "owner",
              "type": "address"
            }
          ],
          "internalType": "struct NftProperties",
          "name": "nftProperties",
          "type": "tuple"
        }
      ],
      "stateMutability": "view",
      "type": "function"
    },
    {
      "inputs": [
        {
          "internalType": "address",
          "name": "owner",
          "type": "address"
        },
        {
          "internalType": "address",
          "name": "operator",
          "type": "address"
        }
      ],
      "name": "isApprovedForAll",
      "outputs": [
        {
          "internalType": "bool",
          "name": "",
          "type": "bool"
        }
      ],
      "stateMutability": "view",
      "type": "function"
    },
    {
      "inputs": [
        {
          "internalType": "address",
          "name": "to",
          "type": "address"
        }
      ],
      "name": "mint",
      "outputs": [
        {
          "internalType": "uint256",
          "name": "",
          "type": "uint256"
        }
      ],
      "stateMutability": "nonpayable",
      "type": "function"
    },
    {
      "inputs": [],
      "name": "name",
      "outputs": [
        {
          "internalType": "string",
          "name": "",
          "type": "string"
        }
      ],
      "stateMutability": "view",
      "type": "function"
    },
    {
      "inputs": [
        {
          "internalType": "uint256",
          "name": "tokenId",
          "type": "uint256"
        }
      ],
      "name": "ownerOf",
      "outputs": [
        {
          "internalType": "address",
          "name": "",
          "type": "address"
        }
      ],
      "stateMutability": "view",
      "type": "function"
    },
    {
      "inputs": [
        {
          "internalType": "address",
          "name": "from",
          "type": "address"
        },
        {
          "internalType": "address",
          "name": "to",
          "type": "address"
        },
        {
          "internalType": "uint256",
          "name": "tokenId",
          "type": "uint256"
        }
      ],
      "name": "safeTransferFrom",
      "outputs": [],
      "stateMutability": "nonpayable",
      "type": "function"
    },
    {
      "inputs": [
        {
          "internalType": "address",
          "name": "from",
          "type": "address"
        },
        {
          "internalType": "address",
          "name": "to",
          "type": "address"
        },
        {
          "internalType": "uint256",
          "name": "tokenId",
          "type": "uint256"
        },
        {
          "internalType": "bytes",
          "name": "_data",
          "type": "bytes"
        }
      ],
      "name": "safeTransferFrom",
      "outputs": [],
      "stateMutability": "nonpayable",
      "type": "function"
    },
    {
      "inputs": [
        {
          "internalType": "address",
          "name": "operator",
          "type": "address"
        },
        {
          "internalType": "bool",
          "name": "approved",
          "type": "bool"
        }
      ],
      "name": "setApprovalForAll",
      "outputs": [],
      "stateMutability": "nonpayable",
      "type": "function"
    },
    {
      "inputs": [
        {
          "internalType": "bytes4",
          "name": "interfaceId",
          "type": "bytes4"
        }
      ],
      "name": "supportsInterface",
      "outputs": [
        {
          "internalType": "bool",
          "name": "",
          "type": "bool"
        }
      ],
      "stateMutability": "view",
      "type": "function"
    },
    {
      "inputs": [],
      "name": "symbol",
      "outputs": [
        {
          "internalType": "string",
          "name": "",
          "type": "string"
        }
      ],
      "stateMutability": "view",
      "type": "function"
    },
    {
      "inputs": [
        {
          "internalType": "uint256",
          "name": "index",
          "type": "uint256"
        }
      ],
      "name": "tokenByIndex",
      "outputs": [
        {
          "internalType": "uint256",
          "name": "",
          "type": "uint256"
        }
      ],
      "stateMutability": "view",
      "type": "function"
    },
    {
      "inputs": [
        {
          "internalType": "address",
          "name": "owner",
          "type": "address"
        },
        {
          "internalType": "uint256",
          "name": "index",
          "type": "uint256"
        }
      ],
      "name": "tokenOfOwnerByIndex",
      "outputs": [
        {
          "internalType": "uint256",
          "name": "",
          "type": "uint256"
        }
      ],
      "stateMutability": "view",
      "type": "function"
    },
    {
      "inputs": [
        {
          "internalType": "uint256",
          "name": "tokenId",
          "type": "uint256"
        }
      ],
      "name": "tokenURI",
      "outputs": [
        {
          "internalType": "string",
          "name": "",
          "type": "string"
        }
      ],
      "stateMutability": "view",
      "type": "function"
    },
    {
      "inputs": [],
      "name": "totalSupply",
      "outputs": [
        {
          "internalType": "uint256",
          "name": "",
          "type": "uint256"
        }
      ],
      "stateMutability": "view",
      "type": "function"
    },
    {
      "inputs": [
        {
          "internalType": "address",
          "name": "from",
          "type": "address"
        },
        {
          "internalType": "address",
          "name": "to",
          "type": "address"
        },
        {
          "internalType": "uint256",
          "name": "tokenId",
          "type": "uint256"
        }
      ],
      "name": "transferFrom",
      "outputs": [],
      "stateMutability": "nonpayable",
      "type": "function"
    }
  ],
  "bytecode": "0x60806040523480156200001157600080fd5b506040518060400160405280600781526020017f504f4b45524f4b000000000000000000000000000000000000000000000000008152506040518060400160405280600581526020017f54504e4654000000000000000000000000000000000000000000000000000000815250816000908051906020019062000096929190620000b8565b508060019080519060200190620000af929190620000b8565b505050620001cd565b828054620000c69062000168565b90600052602060002090601f016020900481019282620000ea576000855562000136565b82601f106200010557805160ff191683800117855562000136565b8280016001018555821562000136579182015b828111156200013557825182559160200191906001019062000118565b5b50905062000145919062000149565b5090565b5b80821115620001645760008160009055506001016200014a565b5090565b600060028204905060018216806200018157607f821691505b602082108114156200019857620001976200019e565b5b50919050565b7f4e487b7100000000000000000000000000000000000000000000000000000000600052602260045260246000fd5b61342d80620001dd6000396000f3fe608060405234801561001057600080fd5b50600436106101215760003560e01c80634f6ccce7116100ad578063a22cb46511610071578063a22cb46514610354578063b88d4fde14610370578063c87b56dd1461038c578063d46300fd146103bc578063e985e9c5146103da57610121565b80634f6ccce7146102765780636352211e146102a65780636a627842146102d657806370a082311461030657806395d89b411461033657610121565b806318160ddd116100f457806318160ddd146101c057806323b872dd146101de5780632f745c59146101fa5780634203cc1a1461022a57806342842e0e1461025a57610121565b806301ffc9a71461012657806306fdde0314610156578063081812fc14610174578063095ea7b3146101a4575b600080fd5b610140600480360381019061013b9190612442565b61040a565b60405161014d9190612873565b60405180910390f35b61015e610484565b60405161016b919061288e565b60405180910390f35b61018e60048036038101906101899190612494565b610516565b60405161019b919061280c565b60405180910390f35b6101be60048036038101906101b99190612406565b61059b565b005b6101c86106b3565b6040516101d59190612b4e565b60405180910390f35b6101f860048036038101906101f39190612300565b6106c0565b005b610214600480360381019061020f9190612406565b610720565b6040516102219190612b4e565b60405180910390f35b610244600480360381019061023f9190612494565b6107c5565b6040516102519190612b33565b60405180910390f35b610274600480360381019061026f9190612300565b610848565b005b610290600480360381019061028b9190612494565b610868565b60405161029d9190612b4e565b60405180910390f35b6102c060048036038101906102bb9190612494565b6108ff565b6040516102cd919061280c565b60405180910390f35b6102f060048036038101906102eb919061229b565b6109b1565b6040516102fd9190612b4e565b60405180910390f35b610320600480360381019061031b919061229b565b610b67565b60405161032d9190612b4e565b60405180910390f35b61033e610c1f565b60405161034b919061288e565b60405180910390f35b61036e600480360381019061036991906123ca565b610cb1565b005b61038a6004803603810190610385919061234f565b610cc7565b005b6103a660048036038101906103a19190612494565b610d29565b6040516103b3919061288e565b60405180910390f35b6103c4610dd0565b6040516103d1919061288e565b60405180910390f35b6103f460048036038101906103ef91906122c4565b610e0d565b6040516104019190612873565b60405180910390f35b60007f780e9d63000000000000000000000000000000000000000000000000000000007bffffffffffffffffffffffffffffffffffffffffffffffffffffffff1916827bffffffffffffffffffffffffffffffffffffffffffffffffffffffff1916148061047d575061047c82610ea1565b5b9050919050565b60606000805461049390612d73565b80601f01602080910402602001604051908101604052809291908181526020018280546104bf90612d73565b801561050c5780601f106104e15761010080835404028352916020019161050c565b820191906000526020600020905b8154815290600101906020018083116104ef57829003601f168201915b5050505050905090565b600061052182610f83565b610560576040517f08c379a000000000000000000000000000000000000000000000000000000000815260040161055790612a93565b60405180910390fd5b6004600083815260200190815260200160002060009054906101000a900473ffffffffffffffffffffffffffffffffffffffff169050919050565b60006105a6826108ff565b90508073ffffffffffffffffffffffffffffffffffffffff168373ffffffffffffffffffffffffffffffffffffffff161415610617576040517f08c379a000000000000000000000000000000000000000000000000000000000815260040161060e90612ad3565b60405180910390fd5b8073ffffffffffffffffffffffffffffffffffffffff16610636610fef565b73ffffffffffffffffffffffffffffffffffffffff16148061066557506106648161065f610fef565b610e0d565b5b6106a4576040517f08c379a000000000000000000000000000000000000000000000000000000000815260040161069b90612a13565b60405180910390fd5b6106ae8383610ff7565b505050565b6000600880549050905090565b6106d16106cb610fef565b826110b0565b610710576040517f08c379a000000000000000000000000000000000000000000000000000000000815260040161070790612af3565b60405180910390fd5b61071b83838361118e565b505050565b600061072b83610b67565b821061076c576040517f08c379a000000000000000000000000000000000000000000000000000000000815260040161076390612933565b60405180910390fd5b600660008473ffffffffffffffffffffffffffffffffffffffff1673ffffffffffffffffffffffffffffffffffffffff168152602001908152602001600020600083815260200190815260200160002054905092915050565b6107cd6121a1565b600b60008381526020019081526020016000206040518060200160405290816000820160009054906101000a900473ffffffffffffffffffffffffffffffffffffffff1673ffffffffffffffffffffffffffffffffffffffff1673ffffffffffffffffffffffffffffffffffffffff16815250509050919050565b61086383838360405180602001604052806000815250610cc7565b505050565b60006108726106b3565b82106108b3576040517f08c379a00000000000000000000000000000000000000000000000000000000081526004016108aa90612b13565b60405180910390fd5b600882815481106108ed577f4e487b7100000000000000000000000000000000000000000000000000000000600052603260045260246000fd5b90600052602060002001549050919050565b6000806002600084815260200190815260200160002060009054906101000a900473ffffffffffffffffffffffffffffffffffffffff169050600073ffffffffffffffffffffffffffffffffffffffff168173ffffffffffffffffffffffffffffffffffffffff1614156109a8576040517f08c379a000000000000000000000000000000000000000000000000000000000815260040161099f90612a53565b60405180910390fd5b80915050919050565b6000806109be600a6113f5565b90506109ca8382611403565b610a406040518060400160405280600981526020017f746f6b656e20746f200000000000000000000000000000000000000000000000815250846040518060400160405280600981526020017f746f6b656e206964200000000000000000000000000000000000000000000000815250846115dd565b610a486121a1565b83816000019073ffffffffffffffffffffffffffffffffffffffff16908173ffffffffffffffffffffffffffffffffffffffff168152505080600b600084815260200190815260200160002060008201518160000160006101000a81548173ffffffffffffffffffffffffffffffffffffffff021916908373ffffffffffffffffffffffffffffffffffffffff160217905550905050610b536040518060400160405280600181526020017f3100000000000000000000000000000000000000000000000000000000000000815250600b600085815260200190815260200160002060000160009054906101000a900473ffffffffffffffffffffffffffffffffffffffff1661167f565b610b5d600a61171b565b8192505050919050565b60008073ffffffffffffffffffffffffffffffffffffffff168273ffffffffffffffffffffffffffffffffffffffff161415610bd8576040517f08c379a0000000000000000000000000000000000000000000000000000000008152600401610bcf90612a33565b60405180910390fd5b600360008373ffffffffffffffffffffffffffffffffffffffff1673ffffffffffffffffffffffffffffffffffffffff168152602001908152602001600020549050919050565b606060018054610c2e90612d73565b80601f0160208091040260200160405190810160405280929190818152602001828054610c5a90612d73565b8015610ca75780601f10610c7c57610100808354040283529160200191610ca7565b820191906000526020600020905b815481529060010190602001808311610c8a57829003601f168201915b5050505050905090565b610cc3610cbc610fef565b8383611731565b5050565b610cd8610cd2610fef565b836110b0565b610d17576040517f08c379a0000000000000000000000000000000000000000000000000000000008152600401610d0e90612af3565b60405180910390fd5b610d238484848461189e565b50505050565b6060610d3482610f83565b610d73576040517f08c379a0000000000000000000000000000000000000000000000000000000008152600401610d6a90612ab3565b60405180910390fd5b6000610d7d6118fa565b90506000815111610d9d5760405180602001604052806000815250610dc8565b80610da784611911565b604051602001610db89291906127e8565b6040516020818303038152906040525b915050919050565b60606040518060400160405280600381526020017f6161610000000000000000000000000000000000000000000000000000000000815250905090565b6000600560008473ffffffffffffffffffffffffffffffffffffffff1673ffffffffffffffffffffffffffffffffffffffff16815260200190815260200160002060008373ffffffffffffffffffffffffffffffffffffffff1673ffffffffffffffffffffffffffffffffffffffff16815260200190815260200160002060009054906101000a900460ff16905092915050565b60007f80ac58cd000000000000000000000000000000000000000000000000000000007bffffffffffffffffffffffffffffffffffffffffffffffffffffffff1916827bffffffffffffffffffffffffffffffffffffffffffffffffffffffff19161480610f6c57507f5b5e139f000000000000000000000000000000000000000000000000000000007bffffffffffffffffffffffffffffffffffffffffffffffffffffffff1916827bffffffffffffffffffffffffffffffffffffffffffffffffffffffff1916145b80610f7c5750610f7b82611abe565b5b9050919050565b60008073ffffffffffffffffffffffffffffffffffffffff166002600084815260200190815260200160002060009054906101000a900473ffffffffffffffffffffffffffffffffffffffff1673ffffffffffffffffffffffffffffffffffffffff1614159050919050565b600033905090565b816004600083815260200190815260200160002060006101000a81548173ffffffffffffffffffffffffffffffffffffffff021916908373ffffffffffffffffffffffffffffffffffffffff160217905550808273ffffffffffffffffffffffffffffffffffffffff1661106a836108ff565b73ffffffffffffffffffffffffffffffffffffffff167f8c5be1e5ebec7d5bd14f71427d1e84f3dd0314c0f7b2291e5b200ac8c7c3b92560405160405180910390a45050565b60006110bb82610f83565b6110fa576040517f08c379a00000000000000000000000000000000000000000000000000000000081526004016110f1906129f3565b60405180910390fd5b6000611105836108ff565b90508073ffffffffffffffffffffffffffffffffffffffff168473ffffffffffffffffffffffffffffffffffffffff16148061117457508373ffffffffffffffffffffffffffffffffffffffff1661115c84610516565b73ffffffffffffffffffffffffffffffffffffffff16145b8061118557506111848185610e0d565b5b91505092915050565b8273ffffffffffffffffffffffffffffffffffffffff166111ae826108ff565b73ffffffffffffffffffffffffffffffffffffffff1614611204576040517f08c379a00000000000000000000000000000000000000000000000000000000081526004016111fb90612973565b60405180910390fd5b600073ffffffffffffffffffffffffffffffffffffffff168273ffffffffffffffffffffffffffffffffffffffff161415611274576040517f08c379a000000000000000000000000000000000000000000000000000000000815260040161126b906129b3565b60405180910390fd5b61127f838383611b28565b61128a600082610ff7565b6001600360008573ffffffffffffffffffffffffffffffffffffffff1673ffffffffffffffffffffffffffffffffffffffff16815260200190815260200160002060008282546112da9190612c89565b925050819055506001600360008473ffffffffffffffffffffffffffffffffffffffff1673ffffffffffffffffffffffffffffffffffffffff16815260200190815260200160002060008282546113319190612c02565b92505081905550816002600083815260200190815260200160002060006101000a81548173ffffffffffffffffffffffffffffffffffffffff021916908373ffffffffffffffffffffffffffffffffffffffff160217905550808273ffffffffffffffffffffffffffffffffffffffff168473ffffffffffffffffffffffffffffffffffffffff167fddf252ad1be2c89b69c2b068fc378daa952ba7f163c4a11628f55a4df523b3ef60405160405180910390a46113f0838383611c3c565b505050565b600081600001549050919050565b600073ffffffffffffffffffffffffffffffffffffffff168273ffffffffffffffffffffffffffffffffffffffff161415611473576040517f08c379a000000000000000000000000000000000000000000000000000000000815260040161146a90612a73565b60405180910390fd5b61147c81610f83565b156114bc576040517f08c379a00000000000000000000000000000000000000000000000000000000081526004016114b390612993565b60405180910390fd5b6114c860008383611b28565b6001600360008473ffffffffffffffffffffffffffffffffffffffff1673ffffffffffffffffffffffffffffffffffffffff16815260200190815260200160002060008282546115189190612c02565b92505081905550816002600083815260200190815260200160002060006101000a81548173ffffffffffffffffffffffffffffffffffffffff021916908373ffffffffffffffffffffffffffffffffffffffff160217905550808273ffffffffffffffffffffffffffffffffffffffff16600073ffffffffffffffffffffffffffffffffffffffff167fddf252ad1be2c89b69c2b068fc378daa952ba7f163c4a11628f55a4df523b3ef60405160405180910390a46115d960008383611c3c565b5050565b611679848484846040516024016115f794939291906128e0565b6040516020818303038152906040527f8f624be9000000000000000000000000000000000000000000000000000000007bffffffffffffffffffffffffffffffffffffffffffffffffffffffff19166020820180517bffffffffffffffffffffffffffffffffffffffffffffffffffffffff8381831617835250505050611c41565b50505050565b61171782826040516024016116959291906128b0565b6040516020818303038152906040527f319af333000000000000000000000000000000000000000000000000000000007bffffffffffffffffffffffffffffffffffffffffffffffffffffffff19166020820180517bffffffffffffffffffffffffffffffffffffffffffffffffffffffff8381831617835250505050611c41565b5050565b6001816000016000828254019250508190555050565b8173ffffffffffffffffffffffffffffffffffffffff168373ffffffffffffffffffffffffffffffffffffffff1614156117a0576040517f08c379a0000000000000000000000000000000000000000000000000000000008152600401611797906129d3565b60405180910390fd5b80600560008573ffffffffffffffffffffffffffffffffffffffff1673ffffffffffffffffffffffffffffffffffffffff16815260200190815260200160002060008473ffffffffffffffffffffffffffffffffffffffff1673ffffffffffffffffffffffffffffffffffffffff16815260200190815260200160002060006101000a81548160ff0219169083151502179055508173ffffffffffffffffffffffffffffffffffffffff168373ffffffffffffffffffffffffffffffffffffffff167f17307eab39ab6107e8899845ad3d59bd9653f200f220920489ca2b5937696c31836040516118919190612873565b60405180910390a3505050565b6118a984848461118e565b6118b584848484611c6a565b6118f4576040517f08c379a00000000000000000000000000000000000000000000000000000000081526004016118eb90612953565b60405180910390fd5b50505050565b606060405180602001604052806000815250905090565b60606000821415611959576040518060400160405280600181526020017f30000000000000000000000000000000000000000000000000000000000000008152509050611ab9565b600082905060005b6000821461198b57808061197490612dd6565b915050600a826119849190612c58565b9150611961565b60008167ffffffffffffffff8111156119cd577f4e487b7100000000000000000000000000000000000000000000000000000000600052604160045260246000fd5b6040519080825280601f01601f1916602001820160405280156119ff5781602001600182028036833780820191505090505b5090505b60008514611ab257600182611a189190612c89565b9150600a85611a279190612e1f565b6030611a339190612c02565b60f81b818381518110611a6f577f4e487b7100000000000000000000000000000000000000000000000000000000600052603260045260246000fd5b60200101907effffffffffffffffffffffffffffffffffffffffffffffffffffffffffffff1916908160001a905350600a85611aab9190612c58565b9450611a03565b8093505050505b919050565b60007f01ffc9a7000000000000000000000000000000000000000000000000000000007bffffffffffffffffffffffffffffffffffffffffffffffffffffffff1916827bffffffffffffffffffffffffffffffffffffffffffffffffffffffff1916149050919050565b611b33838383611e01565b600073ffffffffffffffffffffffffffffffffffffffff168373ffffffffffffffffffffffffffffffffffffffff161415611b7657611b7181611e06565b611bb5565b8173ffffffffffffffffffffffffffffffffffffffff168373ffffffffffffffffffffffffffffffffffffffff1614611bb457611bb38382611e4f565b5b5b600073ffffffffffffffffffffffffffffffffffffffff168273ffffffffffffffffffffffffffffffffffffffff161415611bf857611bf381611fbc565b611c37565b8273ffffffffffffffffffffffffffffffffffffffff168273ffffffffffffffffffffffffffffffffffffffff1614611c3657611c3582826120ff565b5b5b505050565b505050565b60008151905060006a636f6e736f6c652e6c6f679050602083016000808483855afa5050505050565b6000611c8b8473ffffffffffffffffffffffffffffffffffffffff1661217e565b15611df4578373ffffffffffffffffffffffffffffffffffffffff1663150b7a02611cb4610fef565b8786866040518563ffffffff1660e01b8152600401611cd69493929190612827565b602060405180830381600087803b158015611cf057600080fd5b505af1925050508015611d2157506040513d601f19601f82011682018060405250810190611d1e919061246b565b60015b611da4573d8060008114611d51576040519150601f19603f3d011682016040523d82523d6000602084013e611d56565b606091505b50600081511415611d9c576040517f08c379a0000000000000000000000000000000000000000000000000000000008152600401611d9390612953565b60405180910390fd5b805181602001fd5b63150b7a0260e01b7bffffffffffffffffffffffffffffffffffffffffffffffffffffffff1916817bffffffffffffffffffffffffffffffffffffffffffffffffffffffff191614915050611df9565b600190505b949350505050565b505050565b6008805490506009600083815260200190815260200160002081905550600881908060018154018082558091505060019003906000526020600020016000909190919091505550565b60006001611e5c84610b67565b611e669190612c89565b9050600060076000848152602001908152602001600020549050818114611f4b576000600660008673ffffffffffffffffffffffffffffffffffffffff1673ffffffffffffffffffffffffffffffffffffffff168152602001908152602001600020600084815260200190815260200160002054905080600660008773ffffffffffffffffffffffffffffffffffffffff1673ffffffffffffffffffffffffffffffffffffffff168152602001908152602001600020600084815260200190815260200160002081905550816007600083815260200190815260200160002081905550505b6007600084815260200190815260200160002060009055600660008573ffffffffffffffffffffffffffffffffffffffff1673ffffffffffffffffffffffffffffffffffffffff16815260200190815260200160002060008381526020019081526020016000206000905550505050565b60006001600880549050611fd09190612c89565b9050600060096000848152602001908152602001600020549050600060088381548110612026577f4e487b7100000000000000000000000000000000000000000000000000000000600052603260045260246000fd5b90600052602060002001549050806008838154811061206e577f4e487b7100000000000000000000000000000000000000000000000000000000600052603260045260246000fd5b9060005260206000200181905550816009600083815260200190815260200160002081905550600960008581526020019081526020016000206000905560088054806120e3577f4e487b7100000000000000000000000000000000000000000000000000000000600052603160045260246000fd5b6001900381819060005260206000200160009055905550505050565b600061210a83610b67565b905081600660008573ffffffffffffffffffffffffffffffffffffffff1673ffffffffffffffffffffffffffffffffffffffff168152602001908152602001600020600083815260200190815260200160002081905550806007600084815260200190815260200160002081905550505050565b6000808273ffffffffffffffffffffffffffffffffffffffff163b119050919050565b6040518060200160405280600073ffffffffffffffffffffffffffffffffffffffff1681525090565b60006121dd6121d884612b8e565b612b69565b9050828152602081018484840111156121f557600080fd5b612200848285612d31565b509392505050565b6000813590506122178161339b565b92915050565b60008135905061222c816133b2565b92915050565b600081359050612241816133c9565b92915050565b600081519050612256816133c9565b92915050565b600082601f83011261226d57600080fd5b813561227d8482602086016121ca565b91505092915050565b600081359050612295816133e0565b92915050565b6000602082840312156122ad57600080fd5b60006122bb84828501612208565b91505092915050565b600080604083850312156122d757600080fd5b60006122e585828601612208565b92505060206122f685828601612208565b9150509250929050565b60008060006060848603121561231557600080fd5b600061232386828701612208565b935050602061233486828701612208565b925050604061234586828701612286565b9150509250925092565b6000806000806080858703121561236557600080fd5b600061237387828801612208565b945050602061238487828801612208565b935050604061239587828801612286565b925050606085013567ffffffffffffffff8111156123b257600080fd5b6123be8782880161225c565b91505092959194509250565b600080604083850312156123dd57600080fd5b60006123eb85828601612208565b92505060206123fc8582860161221d565b9150509250929050565b6000806040838503121561241957600080fd5b600061242785828601612208565b925050602061243885828601612286565b9150509250929050565b60006020828403121561245457600080fd5b600061246284828501612232565b91505092915050565b60006020828403121561247d57600080fd5b600061248b84828501612247565b91505092915050565b6000602082840312156124a657600080fd5b60006124b484828501612286565b91505092915050565b6124c681612cbd565b82525050565b6124d581612cbd565b82525050565b6124e481612ccf565b82525050565b60006124f582612bbf565b6124ff8185612bd5565b935061250f818560208601612d40565b61251881612f0c565b840191505092915050565b600061252e82612bca565b6125388185612be6565b9350612548818560208601612d40565b61255181612f0c565b840191505092915050565b600061256782612bca565b6125718185612bf7565b9350612581818560208601612d40565b80840191505092915050565b600061259a602b83612be6565b91506125a582612f1d565b604082019050919050565b60006125bd603283612be6565b91506125c882612f6c565b604082019050919050565b60006125e0602583612be6565b91506125eb82612fbb565b604082019050919050565b6000612603601c83612be6565b915061260e8261300a565b602082019050919050565b6000612626602483612be6565b915061263182613033565b604082019050919050565b6000612649601983612be6565b915061265482613082565b602082019050919050565b600061266c602c83612be6565b9150612677826130ab565b604082019050919050565b600061268f603883612be6565b915061269a826130fa565b604082019050919050565b60006126b2602a83612be6565b91506126bd82613149565b604082019050919050565b60006126d5602983612be6565b91506126e082613198565b604082019050919050565b60006126f8602083612be6565b9150612703826131e7565b602082019050919050565b600061271b602c83612be6565b915061272682613210565b604082019050919050565b600061273e602f83612be6565b91506127498261325f565b604082019050919050565b6000612761602183612be6565b915061276c826132ae565b604082019050919050565b6000612784603183612be6565b915061278f826132fd565b604082019050919050565b60006127a7602c83612be6565b91506127b28261334c565b604082019050919050565b6020820160008201516127d360008501826124bd565b50505050565b6127e281612d27565b82525050565b60006127f4828561255c565b9150612800828461255c565b91508190509392505050565b600060208201905061282160008301846124cc565b92915050565b600060808201905061283c60008301876124cc565b61284960208301866124cc565b61285660408301856127d9565b818103606083015261286881846124ea565b905095945050505050565b600060208201905061288860008301846124db565b92915050565b600060208201905081810360008301526128a88184612523565b905092915050565b600060408201905081810360008301526128ca8185612523565b90506128d960208301846124cc565b9392505050565b600060808201905081810360008301526128fa8187612523565b905061290960208301866124cc565b818103604083015261291b8185612523565b905061292a60608301846127d9565b95945050505050565b6000602082019050818103600083015261294c8161258d565b9050919050565b6000602082019050818103600083015261296c816125b0565b9050919050565b6000602082019050818103600083015261298c816125d3565b9050919050565b600060208201905081810360008301526129ac816125f6565b9050919050565b600060208201905081810360008301526129cc81612619565b9050919050565b600060208201905081810360008301526129ec8161263c565b9050919050565b60006020820190508181036000830152612a0c8161265f565b9050919050565b60006020820190508181036000830152612a2c81612682565b9050919050565b60006020820190508181036000830152612a4c816126a5565b9050919050565b60006020820190508181036000830152612a6c816126c8565b9050919050565b60006020820190508181036000830152612a8c816126eb565b9050919050565b60006020820190508181036000830152612aac8161270e565b9050919050565b60006020820190508181036000830152612acc81612731565b9050919050565b60006020820190508181036000830152612aec81612754565b9050919050565b60006020820190508181036000830152612b0c81612777565b9050919050565b60006020820190508181036000830152612b2c8161279a565b9050919050565b6000602082019050612b4860008301846127bd565b92915050565b6000602082019050612b6360008301846127d9565b92915050565b6000612b73612b84565b9050612b7f8282612da5565b919050565b6000604051905090565b600067ffffffffffffffff821115612ba957612ba8612edd565b5b612bb282612f0c565b9050602081019050919050565b600081519050919050565b600081519050919050565b600082825260208201905092915050565b600082825260208201905092915050565b600081905092915050565b6000612c0d82612d27565b9150612c1883612d27565b9250827fffffffffffffffffffffffffffffffffffffffffffffffffffffffffffffffff03821115612c4d57612c4c612e50565b5b828201905092915050565b6000612c6382612d27565b9150612c6e83612d27565b925082612c7e57612c7d612e7f565b5b828204905092915050565b6000612c9482612d27565b9150612c9f83612d27565b925082821015612cb257612cb1612e50565b5b828203905092915050565b6000612cc882612d07565b9050919050565b60008115159050919050565b60007fffffffff0000000000000000000000000000000000000000000000000000000082169050919050565b600073ffffffffffffffffffffffffffffffffffffffff82169050919050565b6000819050919050565b82818337600083830152505050565b60005b83811015612d5e578082015181840152602081019050612d43565b83811115612d6d576000848401525b50505050565b60006002820490506001821680612d8b57607f821691505b60208210811415612d9f57612d9e612eae565b5b50919050565b612dae82612f0c565b810181811067ffffffffffffffff82111715612dcd57612dcc612edd565b5b80604052505050565b6000612de182612d27565b91507fffffffffffffffffffffffffffffffffffffffffffffffffffffffffffffffff821415612e1457612e13612e50565b5b600182019050919050565b6000612e2a82612d27565b9150612e3583612d27565b925082612e4557612e44612e7f565b5b828206905092915050565b7f4e487b7100000000000000000000000000000000000000000000000000000000600052601160045260246000fd5b7f4e487b7100000000000000000000000000000000000000000000000000000000600052601260045260246000fd5b7f4e487b7100000000000000000000000000000000000000000000000000000000600052602260045260246000fd5b7f4e487b7100000000000000000000000000000000000000000000000000000000600052604160045260246000fd5b6000601f19601f8301169050919050565b7f455243373231456e756d657261626c653a206f776e657220696e646578206f7560008201527f74206f6620626f756e6473000000000000000000000000000000000000000000602082015250565b7f4552433732313a207472616e7366657220746f206e6f6e20455243373231526560008201527f63656976657220696d706c656d656e7465720000000000000000000000000000602082015250565b7f4552433732313a207472616e736665722066726f6d20696e636f72726563742060008201527f6f776e6572000000000000000000000000000000000000000000000000000000602082015250565b7f4552433732313a20746f6b656e20616c7265616479206d696e74656400000000600082015250565b7f4552433732313a207472616e7366657220746f20746865207a65726f2061646460008201527f7265737300000000000000000000000000000000000000000000000000000000602082015250565b7f4552433732313a20617070726f766520746f2063616c6c657200000000000000600082015250565b7f4552433732313a206f70657261746f7220717565727920666f72206e6f6e657860008201527f697374656e7420746f6b656e0000000000000000000000000000000000000000602082015250565b7f4552433732313a20617070726f76652063616c6c6572206973206e6f74206f7760008201527f6e6572206e6f7220617070726f76656420666f7220616c6c0000000000000000602082015250565b7f4552433732313a2062616c616e636520717565727920666f7220746865207a6560008201527f726f206164647265737300000000000000000000000000000000000000000000602082015250565b7f4552433732313a206f776e657220717565727920666f72206e6f6e657869737460008201527f656e7420746f6b656e0000000000000000000000000000000000000000000000602082015250565b7f4552433732313a206d696e7420746f20746865207a65726f2061646472657373600082015250565b7f4552433732313a20617070726f76656420717565727920666f72206e6f6e657860008201527f697374656e7420746f6b656e0000000000000000000000000000000000000000602082015250565b7f4552433732314d657461646174613a2055524920717565727920666f72206e6f60008201527f6e6578697374656e7420746f6b656e0000000000000000000000000000000000602082015250565b7f4552433732313a20617070726f76616c20746f2063757272656e74206f776e6560008201527f7200000000000000000000000000000000000000000000000000000000000000602082015250565b7f4552433732313a207472616e736665722063616c6c6572206973206e6f74206f60008201527f776e6572206e6f7220617070726f766564000000000000000000000000000000602082015250565b7f455243373231456e756d657261626c653a20676c6f62616c20696e646578206f60008201527f7574206f6620626f756e64730000000000000000000000000000000000000000602082015250565b6133a481612cbd565b81146133af57600080fd5b50565b6133bb81612ccf565b81146133c657600080fd5b50565b6133d281612cdb565b81146133dd57600080fd5b50565b6133e981612d27565b81146133f457600080fd5b5056fea2646970667358221220726715d58b573e3e4a8d5097c1d280967c5d56bb31552677434b7db8ca3f568964736f6c63430008010033",
  "linkReferences": {},
  "deployedLinkReferences": {}
}